{
  "_format": "hh-sol-artifact-1",
  "contractName": "Zombeez",
  "sourceName": "contracts/Zombeez.sol",
  "abi": [
    {
      "inputs": [
        {
          "internalType": "string",
          "name": "_name",
          "type": "string"
        },
        {
          "internalType": "string",
          "name": "_symbol",
          "type": "string"
        },
        {
          "internalType": "string",
          "name": "_uri",
          "type": "string"
        },
        {
          "internalType": "bytes32",
          "name": "_merkleRoot",
          "type": "bytes32"
        }
      ],
      "stateMutability": "nonpayable",
      "type": "constructor"
    },
    {
      "anonymous": false,
      "inputs": [
        {
          "indexed": true,
          "internalType": "address",
          "name": "owner",
          "type": "address"
        },
        {
          "indexed": true,
          "internalType": "address",
          "name": "approved",
          "type": "address"
        },
        {
          "indexed": true,
          "internalType": "uint256",
          "name": "tokenId",
          "type": "uint256"
        }
      ],
      "name": "Approval",
      "type": "event"
    },
    {
      "anonymous": false,
      "inputs": [
        {
          "indexed": true,
          "internalType": "address",
          "name": "owner",
          "type": "address"
        },
        {
          "indexed": true,
          "internalType": "address",
          "name": "operator",
          "type": "address"
        },
        {
          "indexed": false,
          "internalType": "bool",
          "name": "approved",
          "type": "bool"
        }
      ],
      "name": "ApprovalForAll",
      "type": "event"
    },
    {
      "anonymous": false,
      "inputs": [
        {
          "indexed": true,
          "internalType": "address",
          "name": "previousOwner",
          "type": "address"
        },
        {
          "indexed": true,
          "internalType": "address",
          "name": "newOwner",
          "type": "address"
        }
      ],
      "name": "OwnershipTransferred",
      "type": "event"
    },
    {
      "anonymous": false,
      "inputs": [
        {
          "indexed": true,
          "internalType": "address",
          "name": "from",
          "type": "address"
        },
        {
          "indexed": true,
          "internalType": "address",
          "name": "to",
          "type": "address"
        },
        {
          "indexed": true,
          "internalType": "uint256",
          "name": "tokenId",
          "type": "uint256"
        }
      ],
      "name": "Transfer",
      "type": "event"
    },
    {
      "inputs": [],
      "name": "MAX_TOKENS",
      "outputs": [
        {
          "internalType": "uint256",
          "name": "",
          "type": "uint256"
        }
      ],
      "stateMutability": "view",
      "type": "function"
    },
    {
      "inputs": [
        {
          "internalType": "address",
          "name": "to",
          "type": "address"
        },
        {
          "internalType": "uint256",
          "name": "tokenId",
          "type": "uint256"
        }
      ],
      "name": "approve",
      "outputs": [],
      "stateMutability": "nonpayable",
      "type": "function"
    },
    {
      "inputs": [
        {
          "internalType": "address",
          "name": "owner",
          "type": "address"
        }
      ],
      "name": "balanceOf",
      "outputs": [
        {
          "internalType": "uint256",
          "name": "",
          "type": "uint256"
        }
      ],
      "stateMutability": "view",
      "type": "function"
    },
    {
      "inputs": [],
      "name": "baseTokenURI",
      "outputs": [
        {
          "internalType": "string",
          "name": "",
          "type": "string"
        }
      ],
      "stateMutability": "view",
      "type": "function"
    },
    {
      "inputs": [
        {
          "internalType": "uint256",
          "name": "tokenId",
          "type": "uint256"
        }
      ],
      "name": "getApproved",
      "outputs": [
        {
          "internalType": "address",
          "name": "",
          "type": "address"
        }
      ],
      "stateMutability": "view",
      "type": "function"
    },
    {
      "inputs": [
        {
          "internalType": "address",
          "name": "owner",
          "type": "address"
        },
        {
          "internalType": "address",
          "name": "operator",
          "type": "address"
        }
      ],
      "name": "isApprovedForAll",
      "outputs": [
        {
          "internalType": "bool",
          "name": "",
          "type": "bool"
        }
      ],
      "stateMutability": "view",
      "type": "function"
    },
    {
      "inputs": [],
      "name": "maxMint",
      "outputs": [
        {
          "internalType": "uint256",
          "name": "",
          "type": "uint256"
        }
      ],
      "stateMutability": "view",
      "type": "function"
    },
    {
      "inputs": [],
      "name": "maxPerMint",
      "outputs": [
        {
          "internalType": "uint256",
          "name": "",
          "type": "uint256"
        }
      ],
      "stateMutability": "view",
      "type": "function"
    },
    {
      "inputs": [],
      "name": "merkleRoot",
      "outputs": [
        {
          "internalType": "bytes32",
          "name": "",
          "type": "bytes32"
        }
      ],
      "stateMutability": "view",
      "type": "function"
    },
    {
      "inputs": [
        {
          "internalType": "uint256",
          "name": "amount",
          "type": "uint256"
        },
        {
          "internalType": "bytes32[]",
          "name": "_proof",
          "type": "bytes32[]"
        },
        {
          "internalType": "uint256[]",
          "name": "_positions",
          "type": "uint256[]"
        }
      ],
      "name": "mintForTokenHolders",
      "outputs": [],
      "stateMutability": "nonpayable",
      "type": "function"
    },
    {
      "inputs": [
        {
          "internalType": "uint256",
          "name": "amount",
          "type": "uint256"
        }
      ],
      "name": "mintPublicSale",
      "outputs": [],
      "stateMutability": "payable",
      "type": "function"
    },
    {
      "inputs": [],
      "name": "name",
      "outputs": [
        {
          "internalType": "string",
          "name": "",
          "type": "string"
        }
      ],
      "stateMutability": "view",
      "type": "function"
    },
    {
      "inputs": [],
      "name": "numTokensMinted",
      "outputs": [
        {
          "internalType": "uint256",
          "name": "",
          "type": "uint256"
        }
      ],
      "stateMutability": "view",
      "type": "function"
    },
    {
      "inputs": [],
      "name": "owner",
      "outputs": [
        {
          "internalType": "address",
          "name": "",
          "type": "address"
        }
      ],
      "stateMutability": "view",
      "type": "function"
    },
    {
      "inputs": [
        {
          "internalType": "uint256",
          "name": "tokenId",
          "type": "uint256"
        }
      ],
      "name": "ownerOf",
      "outputs": [
        {
          "internalType": "address",
          "name": "",
          "type": "address"
        }
      ],
      "stateMutability": "view",
      "type": "function"
    },
    {
      "inputs": [],
      "name": "publicPrice",
      "outputs": [
        {
          "internalType": "uint256",
          "name": "",
          "type": "uint256"
        }
      ],
      "stateMutability": "view",
      "type": "function"
    },
    {
      "inputs": [],
      "name": "renounceOwnership",
      "outputs": [],
      "stateMutability": "nonpayable",
      "type": "function"
    },
    {
      "inputs": [
        {
          "internalType": "address",
          "name": "from",
          "type": "address"
        },
        {
          "internalType": "address",
          "name": "to",
          "type": "address"
        },
        {
          "internalType": "uint256",
          "name": "tokenId",
          "type": "uint256"
        }
      ],
      "name": "safeTransferFrom",
      "outputs": [],
      "stateMutability": "nonpayable",
      "type": "function"
    },
    {
      "inputs": [
        {
          "internalType": "address",
          "name": "from",
          "type": "address"
        },
        {
          "internalType": "address",
          "name": "to",
          "type": "address"
        },
        {
          "internalType": "uint256",
          "name": "tokenId",
          "type": "uint256"
        },
        {
          "internalType": "bytes",
          "name": "_data",
          "type": "bytes"
        }
      ],
      "name": "safeTransferFrom",
      "outputs": [],
      "stateMutability": "nonpayable",
      "type": "function"
    },
    {
      "inputs": [
        {
          "internalType": "address",
          "name": "operator",
          "type": "address"
        },
        {
          "internalType": "bool",
          "name": "approved",
          "type": "bool"
        }
      ],
      "name": "setApprovalForAll",
      "outputs": [],
      "stateMutability": "nonpayable",
      "type": "function"
    },
    {
      "inputs": [
        {
          "internalType": "string",
          "name": "newUri",
          "type": "string"
        }
      ],
      "name": "setBaseURI",
      "outputs": [],
      "stateMutability": "nonpayable",
      "type": "function"
    },
    {
      "inputs": [
        {
          "internalType": "bytes4",
          "name": "interfaceId",
          "type": "bytes4"
        }
      ],
      "name": "supportsInterface",
      "outputs": [
        {
          "internalType": "bool",
          "name": "",
          "type": "bool"
        }
      ],
      "stateMutability": "view",
      "type": "function"
    },
    {
      "inputs": [],
      "name": "symbol",
      "outputs": [
        {
          "internalType": "string",
          "name": "",
          "type": "string"
        }
      ],
      "stateMutability": "view",
      "type": "function"
    },
    {
      "inputs": [
        {
          "internalType": "uint256",
          "name": "index",
          "type": "uint256"
        }
      ],
      "name": "tokenByIndex",
      "outputs": [
        {
          "internalType": "uint256",
          "name": "",
          "type": "uint256"
        }
      ],
      "stateMutability": "view",
      "type": "function"
    },
    {
      "inputs": [
        {
          "internalType": "address",
          "name": "owner",
          "type": "address"
        },
        {
          "internalType": "uint256",
          "name": "index",
          "type": "uint256"
        }
      ],
      "name": "tokenOfOwnerByIndex",
      "outputs": [
        {
          "internalType": "uint256",
          "name": "",
          "type": "uint256"
        }
      ],
      "stateMutability": "view",
      "type": "function"
    },
    {
      "inputs": [
        {
          "internalType": "uint256",
          "name": "tokenId",
          "type": "uint256"
        }
      ],
      "name": "tokenURI",
      "outputs": [
        {
          "internalType": "string",
          "name": "",
          "type": "string"
        }
      ],
      "stateMutability": "view",
      "type": "function"
    },
    {
      "inputs": [],
      "name": "totalSupply",
      "outputs": [
        {
          "internalType": "uint256",
          "name": "",
          "type": "uint256"
        }
      ],
      "stateMutability": "view",
      "type": "function"
    },
    {
      "inputs": [
        {
          "internalType": "address",
          "name": "from",
          "type": "address"
        },
        {
          "internalType": "address",
          "name": "to",
          "type": "address"
        },
        {
          "internalType": "uint256",
          "name": "tokenId",
          "type": "uint256"
        }
      ],
      "name": "transferFrom",
      "outputs": [],
      "stateMutability": "nonpayable",
      "type": "function"
    },
    {
      "inputs": [
        {
          "internalType": "address",
          "name": "newOwner",
          "type": "address"
        }
      ],
      "name": "transferOwnership",
      "outputs": [],
      "stateMutability": "nonpayable",
      "type": "function"
    },
    {
      "inputs": [
        {
          "internalType": "bytes32",
          "name": "root",
          "type": "bytes32"
        },
        {
          "internalType": "bytes32",
          "name": "leaf",
          "type": "bytes32"
        },
        {
          "internalType": "bytes32[]",
          "name": "proof",
          "type": "bytes32[]"
        },
        {
          "internalType": "uint256[]",
          "name": "positions",
          "type": "uint256[]"
        }
      ],
      "name": "verify",
      "outputs": [
        {
          "internalType": "bool",
          "name": "",
          "type": "bool"
        }
      ],
      "stateMutability": "pure",
      "type": "function"
    },
    {
      "inputs": [
        {
          "internalType": "bytes32[]",
          "name": "_proof",
          "type": "bytes32[]"
        },
        {
          "internalType": "uint256[]",
          "name": "_positions",
          "type": "uint256[]"
        }
      ],
      "name": "verifyWhitelist",
      "outputs": [
        {
          "internalType": "bool",
          "name": "",
          "type": "bool"
        }
      ],
      "stateMutability": "view",
      "type": "function"
    },
    {
      "inputs": [
        {
          "internalType": "uint256",
          "name": "amount",
          "type": "uint256"
        }
      ],
      "name": "withdraw",
      "outputs": [],
      "stateMutability": "nonpayable",
      "type": "function"
    }
  ],
  "bytecode": "0x60a060405266b1a2bc2ec50000600b556014600c55600a600d5560405180608001604052807304c8a5eb62f208fa2c91d017ee5c60e00f54bcf273ffffffffffffffffffffffffffffffffffffffff1673ffffffffffffffffffffffffffffffffffffffff1681526020017329c36265c63fe0c3d024b2e4d204b49deefdd67173ffffffffffffffffffffffffffffffffffffffff1673ffffffffffffffffffffffffffffffffffffffff1681526020017392a7bd65c8b2a9c9d98be8eaa92de46d1fbdefaf73ffffffffffffffffffffffffffffffffffffffff1673ffffffffffffffffffffffffffffffffffffffff16815260200173958c09c135650f50b398b3d1e8c4ce9227e5ccef73ffffffffffffffffffffffffffffffffffffffff1673ffffffffffffffffffffffffffffffffffffffff16815250600e9060046200014c9291906200031b565b506040518060800160405280614e2061ffff168152602001614e2061ffff168152602001614e2061ffff168152602001619c4061ffff168152506012906004620001989291906200039d565b50348015620001a657600080fd5b5060405162005a8d38038062005a8d8339818101604052810190620001cc919062000521565b83838160009080519060200190620001e6929190620003e8565b508060019080519060200190620001ff929190620003e8565b50505062000222620002166200024d60201b60201c565b6200025560201b60201c565b81601890805190602001906200023a929190620003e8565b508060808181525050505050506200076c565b600033905090565b6000600a60009054906101000a900473ffffffffffffffffffffffffffffffffffffffff16905081600a60006101000a81548173ffffffffffffffffffffffffffffffffffffffff021916908373ffffffffffffffffffffffffffffffffffffffff1602179055508173ffffffffffffffffffffffffffffffffffffffff168173ffffffffffffffffffffffffffffffffffffffff167f8be0079c531659141344cd1fd0a4f28419497f9722a3daafe3b4186f6b6457e060405160405180910390a35050565b82600481019282156200038a579160200282015b82811115620003895782518260006101000a81548173ffffffffffffffffffffffffffffffffffffffff021916908373ffffffffffffffffffffffffffffffffffffffff160217905550916020019190600101906200032f565b5b50905062000399919062000479565b5090565b8260048101928215620003d5579160200282015b82811115620003d4578251829061ffff16905591602001919060010190620003b1565b5b509050620003e4919062000479565b5090565b828054620003f69062000677565b90600052602060002090601f0160209004810192826200041a576000855562000466565b82601f106200043557805160ff191683800117855562000466565b8280016001018555821562000466579182015b828111156200046557825182559160200191906001019062000448565b5b50905062000475919062000479565b5090565b5b80821115620004945760008160009055506001016200047a565b5090565b6000620004af620004a98462000601565b620005d8565b905082815260208101848484011115620004c857600080fd5b620004d584828562000641565b509392505050565b600081519050620004ee8162000752565b92915050565b600082601f8301126200050657600080fd5b81516200051884826020860162000498565b91505092915050565b600080600080608085870312156200053857600080fd5b600085015167ffffffffffffffff8111156200055357600080fd5b6200056187828801620004f4565b945050602085015167ffffffffffffffff8111156200057f57600080fd5b6200058d87828801620004f4565b935050604085015167ffffffffffffffff811115620005ab57600080fd5b620005b987828801620004f4565b9250506060620005cc87828801620004dd565b91505092959194509250565b6000620005e4620005f7565b9050620005f28282620006ad565b919050565b6000604051905090565b600067ffffffffffffffff8211156200061f576200061e62000712565b5b6200062a8262000741565b9050602081019050919050565b6000819050919050565b60005b838110156200066157808201518184015260208101905062000644565b8381111562000671576000848401525b50505050565b600060028204905060018216806200069057607f821691505b60208210811415620006a757620006a6620006e3565b5b50919050565b620006b88262000741565b810181811067ffffffffffffffff82111715620006da57620006d962000712565b5b80604052505050565b7f4e487b7100000000000000000000000000000000000000000000000000000000600052602260045260246000fd5b7f4e487b7100000000000000000000000000000000000000000000000000000000600052604160045260246000fd5b6000601f19601f8301169050919050565b6200075d8162000637565b81146200076957600080fd5b50565b6080516152fe6200078f60003960008181610ec1015261160c01526152fe6000f3fe6080604052600436106101e35760003560e01c80636352211e11610102578063a945bf8011610095578063e985e9c511610064578063e985e9c51461070d578063ea7a0c091461074a578063f2fde38b14610773578063f47c84c51461079c576101e3565b8063a945bf8014610651578063b88d4fde1461067c578063c87b56dd146106a5578063d547cfb7146106e2576101e3565b80638da5cb5b116100d15780638da5cb5b1461059557806395d89b41146105c05780639bb6dcc8146105eb578063a22cb46514610628576101e3565b80636352211e146104d957806370a0823114610516578063715018a6146105535780637501f7411461056a576101e3565b80632f745c591161017a578063507e094f11610149578063507e094f1461042c57806355f804b3146104575780635a5e5d5814610480578063633553541461049c576101e3565b80632f745c591461035e5780634230baee1461039b57806342842e0e146103c65780634f6ccce7146103ef576101e3565b806318160ddd116101b657806318160ddd146102b657806323b872dd146102e15780632e1a7d4d1461030a5780632eb4a7ab14610333576101e3565b806301ffc9a7146101e857806306fdde0314610225578063081812fc14610250578063095ea7b31461028d575b600080fd5b3480156101f457600080fd5b5061020f600480360381019061020a91906139c0565b6107c7565b60405161021c919061414f565b60405180910390f35b34801561023157600080fd5b5061023a610841565b6040516102479190614185565b60405180910390f35b34801561025c57600080fd5b5061027760048036038101906102729190613a53565b6108d3565b60405161028491906140e8565b60405180910390f35b34801561029957600080fd5b506102b460048036038101906102af9190613885565b610958565b005b3480156102c257600080fd5b506102cb610a70565b6040516102d89190614587565b60405180910390f35b3480156102ed57600080fd5b506103086004803603810190610303919061377f565b610a7d565b005b34801561031657600080fd5b50610331600480360381019061032c9190613a53565b610add565b005b34801561033f57600080fd5b50610348610ebf565b604051610355919061416a565b60405180910390f35b34801561036a57600080fd5b5061038560048036038101906103809190613885565b610ee3565b6040516103929190614587565b60405180910390f35b3480156103a757600080fd5b506103b0610f88565b6040516103bd9190614587565b60405180910390f35b3480156103d257600080fd5b506103ed60048036038101906103e8919061377f565b610f8e565b005b3480156103fb57600080fd5b5061041660048036038101906104119190613a53565b610fae565b6040516104239190614587565b60405180910390f35b34801561043857600080fd5b50610441611045565b60405161044e9190614587565b60405180910390f35b34801561046357600080fd5b5061047e60048036038101906104799190613a12565b61104b565b005b61049a60048036038101906104959190613a53565b611322565b005b3480156104a857600080fd5b506104c360048036038101906104be91906138c1565b6115db565b6040516104d0919061414f565b60405180910390f35b3480156104e557600080fd5b5061050060048036038101906104fb9190613a53565b61163c565b60405161050d91906140e8565b60405180910390f35b34801561052257600080fd5b5061053d6004803603810190610538919061371a565b6116ee565b60405161054a9190614587565b60405180910390f35b34801561055f57600080fd5b506105686117a6565b005b34801561057657600080fd5b5061057f61182e565b60405161058c9190614587565b60405180910390f35b3480156105a157600080fd5b506105aa611834565b6040516105b791906140e8565b60405180910390f35b3480156105cc57600080fd5b506105d561185e565b6040516105e29190614185565b60405180910390f35b3480156105f757600080fd5b50610612600480360381019061060d919061392d565b6118f0565b60405161061f919061414f565b60405180910390f35b34801561063457600080fd5b5061064f600480360381019061064a9190613849565b611a0f565b005b34801561065d57600080fd5b50610666611b90565b6040516106739190614587565b60405180910390f35b34801561068857600080fd5b506106a3600480360381019061069e91906137ce565b611b96565b005b3480156106b157600080fd5b506106cc60048036038101906106c79190613a53565b611bf8565b6040516106d99190614185565b60405180910390f35b3480156106ee57600080fd5b506106f7611c9f565b6040516107049190614185565b60405180910390f35b34801561071957600080fd5b50610734600480360381019061072f9190613743565b611d2d565b604051610741919061414f565b60405180910390f35b34801561075657600080fd5b50610771600480360381019061076c9190613a7c565b611dc1565b005b34801561077f57600080fd5b5061079a6004803603810190610795919061371a565b612075565b005b3480156107a857600080fd5b506107b161216d565b6040516107be9190614587565b60405180910390f35b60007f780e9d63000000000000000000000000000000000000000000000000000000007bffffffffffffffffffffffffffffffffffffffffffffffffffffffff1916827bffffffffffffffffffffffffffffffffffffffffffffffffffffffff1916148061083a575061083982612173565b5b9050919050565b606060008054610850906148a4565b80601f016020809104026020016040519081016040528092919081815260200182805461087c906148a4565b80156108c95780601f1061089e576101008083540402835291602001916108c9565b820191906000526020600020905b8154815290600101906020018083116108ac57829003601f168201915b5050505050905090565b60006108de82612255565b61091d576040517f08c379a000000000000000000000000000000000000000000000000000000000815260040161091490614427565b60405180910390fd5b6004600083815260200190815260200160002060009054906101000a900473ffffffffffffffffffffffffffffffffffffffff169050919050565b60006109638261163c565b90508073ffffffffffffffffffffffffffffffffffffffff168373ffffffffffffffffffffffffffffffffffffffff1614156109d4576040517f08c379a00000000000000000000000000000000000000000000000000000000081526004016109cb906144e7565b60405180910390fd5b8073ffffffffffffffffffffffffffffffffffffffff166109f36122c1565b73ffffffffffffffffffffffffffffffffffffffff161480610a225750610a2181610a1c6122c1565b611d2d565b5b610a61576040517f08c379a0000000000000000000000000000000000000000000000000000000008152600401610a5890614347565b60405180910390fd5b610a6b83836122c9565b505050565b6000600880549050905090565b610a8e610a886122c1565b82612382565b610acd576040517f08c379a0000000000000000000000000000000000000000000000000000000008152600401610ac490614507565b60405180910390fd5b610ad8838383612460565b505050565b3373ffffffffffffffffffffffffffffffffffffffff16600e600060048110610b2f577f4e487b7100000000000000000000000000000000000000000000000000000000600052603260045260246000fd5b0160009054906101000a900473ffffffffffffffffffffffffffffffffffffffff1673ffffffffffffffffffffffffffffffffffffffff161480610bfa57503373ffffffffffffffffffffffffffffffffffffffff16600e600160048110610bc0577f4e487b7100000000000000000000000000000000000000000000000000000000600052603260045260246000fd5b0160009054906101000a900473ffffffffffffffffffffffffffffffffffffffff1673ffffffffffffffffffffffffffffffffffffffff16145b80610c8c57503373ffffffffffffffffffffffffffffffffffffffff16600e600160048110610c52577f4e487b7100000000000000000000000000000000000000000000000000000000600052603260045260246000fd5b0160009054906101000a900473ffffffffffffffffffffffffffffffffffffffff1673ffffffffffffffffffffffffffffffffffffffff16145b80610d1e57503373ffffffffffffffffffffffffffffffffffffffff16600e600360048110610ce4577f4e487b7100000000000000000000000000000000000000000000000000000000600052603260045260246000fd5b0160009054906101000a900473ffffffffffffffffffffffffffffffffffffffff1673ffffffffffffffffffffffffffffffffffffffff16145b80610d5b57503373ffffffffffffffffffffffffffffffffffffffff16610d43611834565b73ffffffffffffffffffffffffffffffffffffffff16145b610d9a576040517f08c379a0000000000000000000000000000000000000000000000000000000008152600401610d9190614267565b60405180910390fd5b80471015610ddd576040517f08c379a0000000000000000000000000000000000000000000000000000000008152600401610dd4906142c7565b60405180910390fd5b60005b6004811015610ebb576000620186a060128360048110610e29577f4e487b7100000000000000000000000000000000000000000000000000000000600052603260045260246000fd5b015484610e369190614756565b610e409190614725565b9050610ea7600e8360048110610e7f577f4e487b7100000000000000000000000000000000000000000000000000000000600052603260045260246000fd5b0160009054906101000a900473ffffffffffffffffffffffffffffffffffffffff16826126bc565b508080610eb390614907565b915050610de0565b5050565b7f000000000000000000000000000000000000000000000000000000000000000081565b6000610eee836116ee565b8210610f2f576040517f08c379a0000000000000000000000000000000000000000000000000000000008152600401610f26906141c7565b60405180910390fd5b600660008473ffffffffffffffffffffffffffffffffffffffff1673ffffffffffffffffffffffffffffffffffffffff168152602001908152602001600020600083815260200190815260200160002054905092915050565b60175481565b610fa983838360405180602001604052806000815250611b96565b505050565b6000610fb8610a70565b8210610ff9576040517f08c379a0000000000000000000000000000000000000000000000000000000008152600401610ff090614527565b60405180910390fd5b60088281548110611033577f4e487b7100000000000000000000000000000000000000000000000000000000600052603260045260246000fd5b90600052602060002001549050919050565b600d5481565b3373ffffffffffffffffffffffffffffffffffffffff16600e60006004811061109d577f4e487b7100000000000000000000000000000000000000000000000000000000600052603260045260246000fd5b0160009054906101000a900473ffffffffffffffffffffffffffffffffffffffff1673ffffffffffffffffffffffffffffffffffffffff16148061116857503373ffffffffffffffffffffffffffffffffffffffff16600e60016004811061112e577f4e487b7100000000000000000000000000000000000000000000000000000000600052603260045260246000fd5b0160009054906101000a900473ffffffffffffffffffffffffffffffffffffffff1673ffffffffffffffffffffffffffffffffffffffff16145b806111fa57503373ffffffffffffffffffffffffffffffffffffffff16600e6001600481106111c0577f4e487b7100000000000000000000000000000000000000000000000000000000600052603260045260246000fd5b0160009054906101000a900473ffffffffffffffffffffffffffffffffffffffff1673ffffffffffffffffffffffffffffffffffffffff16145b8061128c57503373ffffffffffffffffffffffffffffffffffffffff16600e600360048110611252577f4e487b7100000000000000000000000000000000000000000000000000000000600052603260045260246000fd5b0160009054906101000a900473ffffffffffffffffffffffffffffffffffffffff1673ffffffffffffffffffffffffffffffffffffffff16145b806112c957503373ffffffffffffffffffffffffffffffffffffffff166112b1611834565b73ffffffffffffffffffffffffffffffffffffffff16145b611308576040517f08c379a00000000000000000000000000000000000000000000000000000000081526004016112ff90614267565b60405180910390fd5b806018908051906020019061131e9291906133fd565b5050565b60008111611365576040517f08c379a000000000000000000000000000000000000000000000000000000000815260040161135c906144a7565b60405180910390fd5b61208f611370610a70565b106113b0576040517f08c379a00000000000000000000000000000000000000000000000000000000081526004016113a790614567565b60405180910390fd5b600d548111156113f5576040517f08c379a00000000000000000000000000000000000000000000000000000000081526004016113ec906143c7565b60405180910390fd5b61208f81611401610a70565b61140b91906146cf565b111561144c576040517f08c379a0000000000000000000000000000000000000000000000000000000008152600401611443906143a7565b60405180910390fd5b61208f81601960003373ffffffffffffffffffffffffffffffffffffffff1673ffffffffffffffffffffffffffffffffffffffff1681526020019081526020016000205461149a91906146cf565b11156114db576040517f08c379a00000000000000000000000000000000000000000000000000000000081526004016114d2906144c7565b60405180910390fd5b3481600b546114ea9190614756565b1461152a576040517f08c379a000000000000000000000000000000000000000000000000000000000815260040161152190614407565b60405180910390fd5b60005b818110156115d7576000600160175461154691906146cf565b905060016017600082825461155b91906146cf565b925050819055506001601960003373ffffffffffffffffffffffffffffffffffffffff1673ffffffffffffffffffffffffffffffffffffffff16815260200190815260200160002060008282546115b291906146cf565b925050819055506115c333826127b0565b5080806115cf90614907565b91505061152d565b5050565b600080336040516020016115ef9190614068565b6040516020818303038152906040528051906020012090506116337f00000000000000000000000000000000000000000000000000000000000000008286866118f0565b91505092915050565b6000806002600084815260200190815260200160002060009054906101000a900473ffffffffffffffffffffffffffffffffffffffff169050600073ffffffffffffffffffffffffffffffffffffffff168173ffffffffffffffffffffffffffffffffffffffff1614156116e5576040517f08c379a00000000000000000000000000000000000000000000000000000000081526004016116dc90614387565b60405180910390fd5b80915050919050565b60008073ffffffffffffffffffffffffffffffffffffffff168273ffffffffffffffffffffffffffffffffffffffff16141561175f576040517f08c379a000000000000000000000000000000000000000000000000000000000815260040161175690614367565b60405180910390fd5b600360008373ffffffffffffffffffffffffffffffffffffffff1673ffffffffffffffffffffffffffffffffffffffff168152602001908152602001600020549050919050565b6117ae6122c1565b73ffffffffffffffffffffffffffffffffffffffff166117cc611834565b73ffffffffffffffffffffffffffffffffffffffff1614611822576040517f08c379a000000000000000000000000000000000000000000000000000000000815260040161181990614447565b60405180910390fd5b61182c60006127ce565b565b600c5481565b6000600a60009054906101000a900473ffffffffffffffffffffffffffffffffffffffff16905090565b60606001805461186d906148a4565b80601f0160208091040260200160405190810160405280929190818152602001828054611899906148a4565b80156118e65780601f106118bb576101008083540402835291602001916118e6565b820191906000526020600020905b8154815290600101906020018083116118c957829003601f168201915b5050505050905090565b60008084905060005b8451811015611a0057600085828151811061193d577f4e487b7100000000000000000000000000000000000000000000000000000000600052603260045260246000fd5b602002602001015190506001858381518110611982577f4e487b7100000000000000000000000000000000000000000000000000000000600052603260045260246000fd5b602002602001015114156119c05782816040516020016119a3929190614083565b6040516020818303038152906040528051906020012092506119ec565b80836040516020016119d3929190614083565b6040516020818303038152906040528051906020012092505b5080806119f890614907565b9150506118f9565b50858114915050949350505050565b611a176122c1565b73ffffffffffffffffffffffffffffffffffffffff168273ffffffffffffffffffffffffffffffffffffffff161415611a85576040517f08c379a0000000000000000000000000000000000000000000000000000000008152600401611a7c906142a7565b60405180910390fd5b8060056000611a926122c1565b73ffffffffffffffffffffffffffffffffffffffff1673ffffffffffffffffffffffffffffffffffffffff16815260200190815260200160002060008473ffffffffffffffffffffffffffffffffffffffff1673ffffffffffffffffffffffffffffffffffffffff16815260200190815260200160002060006101000a81548160ff0219169083151502179055508173ffffffffffffffffffffffffffffffffffffffff16611b3f6122c1565b73ffffffffffffffffffffffffffffffffffffffff167f17307eab39ab6107e8899845ad3d59bd9653f200f220920489ca2b5937696c3183604051611b84919061414f565b60405180910390a35050565b600b5481565b611ba7611ba16122c1565b83612382565b611be6576040517f08c379a0000000000000000000000000000000000000000000000000000000008152600401611bdd90614507565b60405180910390fd5b611bf284848484612894565b50505050565b6060611c0382612255565b611c42576040517f08c379a0000000000000000000000000000000000000000000000000000000008152600401611c3990614487565b60405180910390fd5b6000611c4c6128f0565b90506000815111611c6c5760405180602001604052806000815250611c97565b80611c7684612982565b604051602001611c879291906140af565b6040516020818303038152906040525b915050919050565b60188054611cac906148a4565b80601f0160208091040260200160405190810160405280929190818152602001828054611cd8906148a4565b8015611d255780601f10611cfa57610100808354040283529160200191611d25565b820191906000526020600020905b815481529060010190602001808311611d0857829003601f168201915b505050505081565b6000600560008473ffffffffffffffffffffffffffffffffffffffff1673ffffffffffffffffffffffffffffffffffffffff16815260200190815260200160002060008373ffffffffffffffffffffffffffffffffffffffff1673ffffffffffffffffffffffffffffffffffffffff16815260200190815260200160002060009054906101000a900460ff16905092915050565b611dcb82826115db565b611e0a576040517f08c379a0000000000000000000000000000000000000000000000000000000008152600401611e0190614227565b60405180910390fd5b60008311611e4d576040517f08c379a0000000000000000000000000000000000000000000000000000000008152600401611e44906144a7565b60405180910390fd5b61208f611e58610a70565b10611e98576040517f08c379a0000000000000000000000000000000000000000000000000000000008152600401611e8f90614567565b60405180910390fd5b6003831115611edc576040517f08c379a0000000000000000000000000000000000000000000000000000000008152600401611ed3906141a7565b60405180910390fd5b61208f83611ee8610a70565b611ef291906146cf565b1115611f33576040517f08c379a0000000000000000000000000000000000000000000000000000000008152600401611f2a906143a7565b60405180910390fd5b600c5483601960003373ffffffffffffffffffffffffffffffffffffffff1673ffffffffffffffffffffffffffffffffffffffff16815260200190815260200160002054611f8191906146cf565b1115611fc2576040517f08c379a0000000000000000000000000000000000000000000000000000000008152600401611fb990614547565b60405180910390fd5b60005b8381101561206f5760006001601754611fde91906146cf565b9050600160176000828254611ff391906146cf565b925050819055506001601960003373ffffffffffffffffffffffffffffffffffffffff1673ffffffffffffffffffffffffffffffffffffffff168152602001908152602001600020600082825461204a91906146cf565b9250508190555061205b33826127b0565b50808061206790614907565b915050611fc5565b50505050565b61207d6122c1565b73ffffffffffffffffffffffffffffffffffffffff1661209b611834565b73ffffffffffffffffffffffffffffffffffffffff16146120f1576040517f08c379a00000000000000000000000000000000000000000000000000000000081526004016120e890614447565b60405180910390fd5b600073ffffffffffffffffffffffffffffffffffffffff168173ffffffffffffffffffffffffffffffffffffffff161415612161576040517f08c379a000000000000000000000000000000000000000000000000000000000815260040161215890614207565b60405180910390fd5b61216a816127ce565b50565b61208f81565b60007f80ac58cd000000000000000000000000000000000000000000000000000000007bffffffffffffffffffffffffffffffffffffffffffffffffffffffff1916827bffffffffffffffffffffffffffffffffffffffffffffffffffffffff1916148061223e57507f5b5e139f000000000000000000000000000000000000000000000000000000007bffffffffffffffffffffffffffffffffffffffffffffffffffffffff1916827bffffffffffffffffffffffffffffffffffffffffffffffffffffffff1916145b8061224e575061224d82612b2f565b5b9050919050565b60008073ffffffffffffffffffffffffffffffffffffffff166002600084815260200190815260200160002060009054906101000a900473ffffffffffffffffffffffffffffffffffffffff1673ffffffffffffffffffffffffffffffffffffffff1614159050919050565b600033905090565b816004600083815260200190815260200160002060006101000a81548173ffffffffffffffffffffffffffffffffffffffff021916908373ffffffffffffffffffffffffffffffffffffffff160217905550808273ffffffffffffffffffffffffffffffffffffffff1661233c8361163c565b73ffffffffffffffffffffffffffffffffffffffff167f8c5be1e5ebec7d5bd14f71427d1e84f3dd0314c0f7b2291e5b200ac8c7c3b92560405160405180910390a45050565b600061238d82612255565b6123cc576040517f08c379a00000000000000000000000000000000000000000000000000000000081526004016123c390614327565b60405180910390fd5b60006123d78361163c565b90508073ffffffffffffffffffffffffffffffffffffffff168473ffffffffffffffffffffffffffffffffffffffff16148061244657508373ffffffffffffffffffffffffffffffffffffffff1661242e846108d3565b73ffffffffffffffffffffffffffffffffffffffff16145b8061245757506124568185611d2d565b5b91505092915050565b8273ffffffffffffffffffffffffffffffffffffffff166124808261163c565b73ffffffffffffffffffffffffffffffffffffffff16146124d6576040517f08c379a00000000000000000000000000000000000000000000000000000000081526004016124cd90614467565b60405180910390fd5b600073ffffffffffffffffffffffffffffffffffffffff168273ffffffffffffffffffffffffffffffffffffffff161415612546576040517f08c379a000000000000000000000000000000000000000000000000000000000815260040161253d90614287565b60405180910390fd5b612551838383612b99565b61255c6000826122c9565b6001600360008573ffffffffffffffffffffffffffffffffffffffff1673ffffffffffffffffffffffffffffffffffffffff16815260200190815260200160002060008282546125ac91906147b0565b925050819055506001600360008473ffffffffffffffffffffffffffffffffffffffff1673ffffffffffffffffffffffffffffffffffffffff168152602001908152602001600020600082825461260391906146cf565b92505081905550816002600083815260200190815260200160002060006101000a81548173ffffffffffffffffffffffffffffffffffffffff021916908373ffffffffffffffffffffffffffffffffffffffff160217905550808273ffffffffffffffffffffffffffffffffffffffff168473ffffffffffffffffffffffffffffffffffffffff167fddf252ad1be2c89b69c2b068fc378daa952ba7f163c4a11628f55a4df523b3ef60405160405180910390a4505050565b804710156126ff576040517f08c379a00000000000000000000000000000000000000000000000000000000081526004016126f690614307565b60405180910390fd5b60008273ffffffffffffffffffffffffffffffffffffffff1682604051612725906140d3565b60006040518083038185875af1925050503d8060008114612762576040519150601f19603f3d011682016040523d82523d6000602084013e612767565b606091505b50509050806127ab576040517f08c379a00000000000000000000000000000000000000000000000000000000081526004016127a2906142e7565b60405180910390fd5b505050565b6127ca828260405180602001604052806000815250612cad565b5050565b6000600a60009054906101000a900473ffffffffffffffffffffffffffffffffffffffff16905081600a60006101000a81548173ffffffffffffffffffffffffffffffffffffffff021916908373ffffffffffffffffffffffffffffffffffffffff1602179055508173ffffffffffffffffffffffffffffffffffffffff168173ffffffffffffffffffffffffffffffffffffffff167f8be0079c531659141344cd1fd0a4f28419497f9722a3daafe3b4186f6b6457e060405160405180910390a35050565b61289f848484612460565b6128ab84848484612d08565b6128ea576040517f08c379a00000000000000000000000000000000000000000000000000000000081526004016128e1906141e7565b60405180910390fd5b50505050565b6060601880546128ff906148a4565b80601f016020809104026020016040519081016040528092919081815260200182805461292b906148a4565b80156129785780601f1061294d57610100808354040283529160200191612978565b820191906000526020600020905b81548152906001019060200180831161295b57829003601f168201915b5050505050905090565b606060008214156129ca576040518060400160405280600181526020017f30000000000000000000000000000000000000000000000000000000000000008152509050612b2a565b600082905060005b600082146129fc5780806129e590614907565b915050600a826129f59190614725565b91506129d2565b60008167ffffffffffffffff811115612a3e577f4e487b7100000000000000000000000000000000000000000000000000000000600052604160045260246000fd5b6040519080825280601f01601f191660200182016040528015612a705781602001600182028036833780820191505090505b5090505b60008514612b2357600182612a8991906147b0565b9150600a85612a98919061497e565b6030612aa491906146cf565b60f81b818381518110612ae0577f4e487b7100000000000000000000000000000000000000000000000000000000600052603260045260246000fd5b60200101907effffffffffffffffffffffffffffffffffffffffffffffffffffffffffffff1916908160001a905350600a85612b1c9190614725565b9450612a74565b8093505050505b919050565b60007f01ffc9a7000000000000000000000000000000000000000000000000000000007bffffffffffffffffffffffffffffffffffffffffffffffffffffffff1916827bffffffffffffffffffffffffffffffffffffffffffffffffffffffff1916149050919050565b612ba4838383612e9f565b600073ffffffffffffffffffffffffffffffffffffffff168373ffffffffffffffffffffffffffffffffffffffff161415612be757612be281612ea4565b612c26565b8173ffffffffffffffffffffffffffffffffffffffff168373ffffffffffffffffffffffffffffffffffffffff1614612c2557612c248382612eed565b5b5b600073ffffffffffffffffffffffffffffffffffffffff168273ffffffffffffffffffffffffffffffffffffffff161415612c6957612c648161305a565b612ca8565b8273ffffffffffffffffffffffffffffffffffffffff168273ffffffffffffffffffffffffffffffffffffffff1614612ca757612ca6828261319d565b5b5b505050565b612cb7838361321c565b612cc46000848484612d08565b612d03576040517f08c379a0000000000000000000000000000000000000000000000000000000008152600401612cfa906141e7565b60405180910390fd5b505050565b6000612d298473ffffffffffffffffffffffffffffffffffffffff166133ea565b15612e92578373ffffffffffffffffffffffffffffffffffffffff1663150b7a02612d526122c1565b8786866040518563ffffffff1660e01b8152600401612d749493929190614103565b602060405180830381600087803b158015612d8e57600080fd5b505af1925050508015612dbf57506040513d601f19601f82011682018060405250810190612dbc91906139e9565b60015b612e42573d8060008114612def576040519150601f19603f3d011682016040523d82523d6000602084013e612df4565b606091505b50600081511415612e3a576040517f08c379a0000000000000000000000000000000000000000000000000000000008152600401612e31906141e7565b60405180910390fd5b805181602001fd5b63150b7a0260e01b7bffffffffffffffffffffffffffffffffffffffffffffffffffffffff1916817bffffffffffffffffffffffffffffffffffffffffffffffffffffffff191614915050612e97565b600190505b949350505050565b505050565b6008805490506009600083815260200190815260200160002081905550600881908060018154018082558091505060019003906000526020600020016000909190919091505550565b60006001612efa846116ee565b612f0491906147b0565b9050600060076000848152602001908152602001600020549050818114612fe9576000600660008673ffffffffffffffffffffffffffffffffffffffff1673ffffffffffffffffffffffffffffffffffffffff168152602001908152602001600020600084815260200190815260200160002054905080600660008773ffffffffffffffffffffffffffffffffffffffff1673ffffffffffffffffffffffffffffffffffffffff168152602001908152602001600020600084815260200190815260200160002081905550816007600083815260200190815260200160002081905550505b6007600084815260200190815260200160002060009055600660008573ffffffffffffffffffffffffffffffffffffffff1673ffffffffffffffffffffffffffffffffffffffff16815260200190815260200160002060008381526020019081526020016000206000905550505050565b6000600160088054905061306e91906147b0565b90506000600960008481526020019081526020016000205490506000600883815481106130c4577f4e487b7100000000000000000000000000000000000000000000000000000000600052603260045260246000fd5b90600052602060002001549050806008838154811061310c577f4e487b7100000000000000000000000000000000000000000000000000000000600052603260045260246000fd5b906000526020600020018190555081600960008381526020019081526020016000208190555060096000858152602001908152602001600020600090556008805480613181577f4e487b7100000000000000000000000000000000000000000000000000000000600052603160045260246000fd5b6001900381819060005260206000200160009055905550505050565b60006131a8836116ee565b905081600660008573ffffffffffffffffffffffffffffffffffffffff1673ffffffffffffffffffffffffffffffffffffffff168152602001908152602001600020600083815260200190815260200160002081905550806007600084815260200190815260200160002081905550505050565b600073ffffffffffffffffffffffffffffffffffffffff168273ffffffffffffffffffffffffffffffffffffffff16141561328c576040517f08c379a0000000000000000000000000000000000000000000000000000000008152600401613283906143e7565b60405180910390fd5b61329581612255565b156132d5576040517f08c379a00000000000000000000000000000000000000000000000000000000081526004016132cc90614247565b60405180910390fd5b6132e160008383612b99565b6001600360008473ffffffffffffffffffffffffffffffffffffffff1673ffffffffffffffffffffffffffffffffffffffff168152602001908152602001600020600082825461333191906146cf565b92505081905550816002600083815260200190815260200160002060006101000a81548173ffffffffffffffffffffffffffffffffffffffff021916908373ffffffffffffffffffffffffffffffffffffffff160217905550808273ffffffffffffffffffffffffffffffffffffffff16600073ffffffffffffffffffffffffffffffffffffffff167fddf252ad1be2c89b69c2b068fc378daa952ba7f163c4a11628f55a4df523b3ef60405160405180910390a45050565b600080823b905060008111915050919050565b828054613409906148a4565b90600052602060002090601f01602090048101928261342b5760008555613472565b82601f1061344457805160ff1916838001178555613472565b82800160010185558215613472579182015b82811115613471578251825591602001919060010190613456565b5b50905061347f9190613483565b5090565b5b8082111561349c576000816000905550600101613484565b5090565b60006134b36134ae846145c7565b6145a2565b905080838252602082019050828560208602820111156134d257600080fd5b60005b8581101561350257816134e88882613672565b8452602084019350602083019250506001810190506134d5565b5050509392505050565b600061351f61351a846145f3565b6145a2565b9050808382526020820190508285602086028201111561353e57600080fd5b60005b8581101561356e57816135548882613705565b845260208401935060208301925050600181019050613541565b5050509392505050565b600061358b6135868461461f565b6145a2565b9050828152602081018484840111156135a357600080fd5b6135ae848285614862565b509392505050565b60006135c96135c484614650565b6145a2565b9050828152602081018484840111156135e157600080fd5b6135ec848285614862565b509392505050565b60008135905061360381615255565b92915050565b600082601f83011261361a57600080fd5b813561362a8482602086016134a0565b91505092915050565b600082601f83011261364457600080fd5b813561365484826020860161350c565b91505092915050565b60008135905061366c8161526c565b92915050565b60008135905061368181615283565b92915050565b6000813590506136968161529a565b92915050565b6000815190506136ab8161529a565b92915050565b600082601f8301126136c257600080fd5b81356136d2848260208601613578565b91505092915050565b600082601f8301126136ec57600080fd5b81356136fc8482602086016135b6565b91505092915050565b600081359050613714816152b1565b92915050565b60006020828403121561372c57600080fd5b600061373a848285016135f4565b91505092915050565b6000806040838503121561375657600080fd5b6000613764858286016135f4565b9250506020613775858286016135f4565b9150509250929050565b60008060006060848603121561379457600080fd5b60006137a2868287016135f4565b93505060206137b3868287016135f4565b92505060406137c486828701613705565b9150509250925092565b600080600080608085870312156137e457600080fd5b60006137f2878288016135f4565b9450506020613803878288016135f4565b935050604061381487828801613705565b925050606085013567ffffffffffffffff81111561383157600080fd5b61383d878288016136b1565b91505092959194509250565b6000806040838503121561385c57600080fd5b600061386a858286016135f4565b925050602061387b8582860161365d565b9150509250929050565b6000806040838503121561389857600080fd5b60006138a6858286016135f4565b92505060206138b785828601613705565b9150509250929050565b600080604083850312156138d457600080fd5b600083013567ffffffffffffffff8111156138ee57600080fd5b6138fa85828601613609565b925050602083013567ffffffffffffffff81111561391757600080fd5b61392385828601613633565b9150509250929050565b6000806000806080858703121561394357600080fd5b600061395187828801613672565b945050602061396287828801613672565b935050604085013567ffffffffffffffff81111561397f57600080fd5b61398b87828801613609565b925050606085013567ffffffffffffffff8111156139a857600080fd5b6139b487828801613633565b91505092959194509250565b6000602082840312156139d257600080fd5b60006139e084828501613687565b91505092915050565b6000602082840312156139fb57600080fd5b6000613a098482850161369c565b91505092915050565b600060208284031215613a2457600080fd5b600082013567ffffffffffffffff811115613a3e57600080fd5b613a4a848285016136db565b91505092915050565b600060208284031215613a6557600080fd5b6000613a7384828501613705565b91505092915050565b600080600060608486031215613a9157600080fd5b6000613a9f86828701613705565b935050602084013567ffffffffffffffff811115613abc57600080fd5b613ac886828701613609565b925050604084013567ffffffffffffffff811115613ae557600080fd5b613af186828701613633565b9150509250925092565b613b04816147e4565b82525050565b613b1b613b16826147e4565b614950565b82525050565b613b2a816147f6565b82525050565b613b3981614802565b82525050565b613b50613b4b82614802565b614962565b82525050565b6000613b6182614681565b613b6b8185614697565b9350613b7b818560208601614871565b613b8481614a6b565b840191505092915050565b6000613b9a8261468c565b613ba481856146b3565b9350613bb4818560208601614871565b613bbd81614a6b565b840191505092915050565b6000613bd38261468c565b613bdd81856146c4565b9350613bed818560208601614871565b80840191505092915050565b6000613c066031836146b3565b9150613c1182614a89565b604082019050919050565b6000613c29602b836146b3565b9150613c3482614ad8565b604082019050919050565b6000613c4c6032836146b3565b9150613c5782614b27565b604082019050919050565b6000613c6f6026836146b3565b9150613c7a82614b76565b604082019050919050565b6000613c926014836146b3565b9150613c9d82614bc5565b602082019050919050565b6000613cb5601c836146b3565b9150613cc082614bee565b602082019050919050565b6000613cd86027836146b3565b9150613ce382614c17565b604082019050919050565b6000613cfb6024836146b3565b9150613d0682614c66565b604082019050919050565b6000613d1e6019836146b3565b9150613d2982614cb5565b602082019050919050565b6000613d416014836146b3565b9150613d4c82614cde565b602082019050919050565b6000613d64603a836146b3565b9150613d6f82614d07565b604082019050919050565b6000613d87601d836146b3565b9150613d9282614d56565b602082019050919050565b6000613daa602c836146b3565b9150613db582614d7f565b604082019050919050565b6000613dcd6038836146b3565b9150613dd882614dce565b604082019050919050565b6000613df0602a836146b3565b9150613dfb82614e1d565b604082019050919050565b6000613e136029836146b3565b9150613e1e82614e6c565b604082019050919050565b6000613e36601f836146b3565b9150613e4182614ebb565b602082019050919050565b6000613e596031836146b3565b9150613e6482614ee4565b604082019050919050565b6000613e7c6020836146b3565b9150613e8782614f33565b602082019050919050565b6000613e9f6017836146b3565b9150613eaa82614f5c565b602082019050919050565b6000613ec2602c836146b3565b9150613ecd82614f85565b604082019050919050565b6000613ee56020836146b3565b9150613ef082614fd4565b602082019050919050565b6000613f086029836146b3565b9150613f1382614ffd565b604082019050919050565b6000613f2b602f836146b3565b9150613f368261504c565b604082019050919050565b6000613f4e601c836146b3565b9150613f598261509b565b602082019050919050565b6000613f716028836146b3565b9150613f7c826150c4565b604082019050919050565b6000613f946021836146b3565b9150613f9f82615113565b604082019050919050565b6000613fb76000836146a8565b9150613fc282615162565b600082019050919050565b6000613fda6031836146b3565b9150613fe582615165565b604082019050919050565b6000613ffd602c836146b3565b9150614008826151b4565b604082019050919050565b6000614020601c836146b3565b915061402b82615203565b602082019050919050565b6000614043601b836146b3565b915061404e8261522c565b602082019050919050565b61406281614858565b82525050565b60006140748284613b0a565b60148201915081905092915050565b600061408f8285613b3f565b60208201915061409f8284613b3f565b6020820191508190509392505050565b60006140bb8285613bc8565b91506140c78284613bc8565b91508190509392505050565b60006140de82613faa565b9150819050919050565b60006020820190506140fd6000830184613afb565b92915050565b60006080820190506141186000830187613afb565b6141256020830186613afb565b6141326040830185614059565b81810360608301526141448184613b56565b905095945050505050565b60006020820190506141646000830184613b21565b92915050565b600060208201905061417f6000830184613b30565b92915050565b6000602082019050818103600083015261419f8184613b8f565b905092915050565b600060208201905081810360008301526141c081613bf9565b9050919050565b600060208201905081810360008301526141e081613c1c565b9050919050565b6000602082019050818103600083015261420081613c3f565b9050919050565b6000602082019050818103600083015261422081613c62565b9050919050565b6000602082019050818103600083015261424081613c85565b9050919050565b6000602082019050818103600083015261426081613ca8565b9050919050565b6000602082019050818103600083015261428081613ccb565b9050919050565b600060208201905081810360008301526142a081613cee565b9050919050565b600060208201905081810360008301526142c081613d11565b9050919050565b600060208201905081810360008301526142e081613d34565b9050919050565b6000602082019050818103600083015261430081613d57565b9050919050565b6000602082019050818103600083015261432081613d7a565b9050919050565b6000602082019050818103600083015261434081613d9d565b9050919050565b6000602082019050818103600083015261436081613dc0565b9050919050565b6000602082019050818103600083015261438081613de3565b9050919050565b600060208201905081810360008301526143a081613e06565b9050919050565b600060208201905081810360008301526143c081613e29565b9050919050565b600060208201905081810360008301526143e081613e4c565b9050919050565b6000602082019050818103600083015261440081613e6f565b9050919050565b6000602082019050818103600083015261442081613e92565b9050919050565b6000602082019050818103600083015261444081613eb5565b9050919050565b6000602082019050818103600083015261446081613ed8565b9050919050565b6000602082019050818103600083015261448081613efb565b9050919050565b600060208201905081810360008301526144a081613f1e565b9050919050565b600060208201905081810360008301526144c081613f41565b9050919050565b600060208201905081810360008301526144e081613f64565b9050919050565b6000602082019050818103600083015261450081613f87565b9050919050565b6000602082019050818103600083015261452081613fcd565b9050919050565b6000602082019050818103600083015261454081613ff0565b9050919050565b6000602082019050818103600083015261456081614013565b9050919050565b6000602082019050818103600083015261458081614036565b9050919050565b600060208201905061459c6000830184614059565b92915050565b60006145ac6145bd565b90506145b882826148d6565b919050565b6000604051905090565b600067ffffffffffffffff8211156145e2576145e1614a3c565b5b602082029050602081019050919050565b600067ffffffffffffffff82111561460e5761460d614a3c565b5b602082029050602081019050919050565b600067ffffffffffffffff82111561463a57614639614a3c565b5b61464382614a6b565b9050602081019050919050565b600067ffffffffffffffff82111561466b5761466a614a3c565b5b61467482614a6b565b9050602081019050919050565b600081519050919050565b600081519050919050565b600082825260208201905092915050565b600081905092915050565b600082825260208201905092915050565b600081905092915050565b60006146da82614858565b91506146e583614858565b9250827fffffffffffffffffffffffffffffffffffffffffffffffffffffffffffffffff0382111561471a576147196149af565b5b828201905092915050565b600061473082614858565b915061473b83614858565b92508261474b5761474a6149de565b5b828204905092915050565b600061476182614858565b915061476c83614858565b9250817fffffffffffffffffffffffffffffffffffffffffffffffffffffffffffffffff04831182151516156147a5576147a46149af565b5b828202905092915050565b60006147bb82614858565b91506147c683614858565b9250828210156147d9576147d86149af565b5b828203905092915050565b60006147ef82614838565b9050919050565b60008115159050919050565b6000819050919050565b60007fffffffff0000000000000000000000000000000000000000000000000000000082169050919050565b600073ffffffffffffffffffffffffffffffffffffffff82169050919050565b6000819050919050565b82818337600083830152505050565b60005b8381101561488f578082015181840152602081019050614874565b8381111561489e576000848401525b50505050565b600060028204905060018216806148bc57607f821691505b602082108114156148d0576148cf614a0d565b5b50919050565b6148df82614a6b565b810181811067ffffffffffffffff821117156148fe576148fd614a3c565b5b80604052505050565b600061491282614858565b91507fffffffffffffffffffffffffffffffffffffffffffffffffffffffffffffffff821415614945576149446149af565b5b600182019050919050565b600061495b8261496c565b9050919050565b6000819050919050565b600061497782614a7c565b9050919050565b600061498982614858565b915061499483614858565b9250826149a4576149a36149de565b5b828206905092915050565b7f4e487b7100000000000000000000000000000000000000000000000000000000600052601160045260246000fd5b7f4e487b7100000000000000000000000000000000000000000000000000000000600052601260045260246000fd5b7f4e487b7100000000000000000000000000000000000000000000000000000000600052602260045260246000fd5b7f4e487b7100000000000000000000000000000000000000000000000000000000600052604160045260246000fd5b6000601f19601f8301169050919050565b60008160601b9050919050565b7f43616e6e6f742070757263686173652074686973206d616e7920746f6b656e7360008201527f20647572696e67202770726573616c6527000000000000000000000000000000602082015250565b7f455243373231456e756d657261626c653a206f776e657220696e646578206f7560008201527f74206f6620626f756e6473000000000000000000000000000000000000000000602082015250565b7f4552433732313a207472616e7366657220746f206e6f6e20455243373231526560008201527f63656976657220696d706c656d656e7465720000000000000000000000000000602082015250565b7f4f776e61626c653a206e6577206f776e657220697320746865207a65726f206160008201527f6464726573730000000000000000000000000000000000000000000000000000602082015250565b7f4e6f74206f6e207468652077686974656c697374000000000000000000000000600082015250565b7f4552433732313a20746f6b656e20616c7265616479206d696e74656400000000600082015250565b7f63616c6c6572206973206e656974686572205465616d2057616c6c6574206e6f60008201527f72204f776e657200000000000000000000000000000000000000000000000000602082015250565b7f4552433732313a207472616e7366657220746f20746865207a65726f2061646460008201527f7265737300000000000000000000000000000000000000000000000000000000602082015250565b7f4552433732313a20617070726f766520746f2063616c6c657200000000000000600082015250565b7f496e73756666696369656e742062616c616e6365000000000000000000000000600082015250565b7f416464726573733a20756e61626c6520746f2073656e642076616c75652c207260008201527f6563697069656e74206d61792068617665207265766572746564000000000000602082015250565b7f416464726573733a20696e73756666696369656e742062616c616e6365000000600082015250565b7f4552433732313a206f70657261746f7220717565727920666f72206e6f6e657860008201527f697374656e7420746f6b656e0000000000000000000000000000000000000000602082015250565b7f4552433732313a20617070726f76652063616c6c6572206973206e6f74206f7760008201527f6e6572206e6f7220617070726f76656420666f7220616c6c0000000000000000602082015250565b7f4552433732313a2062616c616e636520717565727920666f7220746865207a6560008201527f726f206164647265737300000000000000000000000000000000000000000000602082015250565b7f4552433732313a206f776e657220717565727920666f72206e6f6e657869737460008201527f656e7420746f6b656e0000000000000000000000000000000000000000000000602082015250565b7f4d696e74696e6720776f756c6420657863656564206d617820737570706c7900600082015250565b7f43616e6e6f742070757263686173652074686973206d616e7920746f6b656e7360008201527f20696e2061207472616e73616374696f6e000000000000000000000000000000602082015250565b7f4552433732313a206d696e7420746f20746865207a65726f2061646472657373600082015250565b7f45544820616d6f756e7420697320696e636f7272656374000000000000000000600082015250565b7f4552433732313a20617070726f76656420717565727920666f72206e6f6e657860008201527f697374656e7420746f6b656e0000000000000000000000000000000000000000602082015250565b7f4f776e61626c653a2063616c6c6572206973206e6f7420746865206f776e6572600082015250565b7f4552433732313a207472616e73666572206f6620746f6b656e2074686174206960008201527f73206e6f74206f776e0000000000000000000000000000000000000000000000602082015250565b7f4552433732314d657461646174613a2055524920717565727920666f72206e6f60008201527f6e6578697374656e7420746f6b656e0000000000000000000000000000000000602082015250565b7f4d757374206d696e74206174206c65617374206f6e6520746f6b656e00000000600082015250565b7f50757263686173652065786365656473206d617820616c6c6f7765642070657260008201527f2061646472657373000000000000000000000000000000000000000000000000602082015250565b7f4552433732313a20617070726f76616c20746f2063757272656e74206f776e6560008201527f7200000000000000000000000000000000000000000000000000000000000000602082015250565b50565b7f4552433732313a207472616e736665722063616c6c6572206973206e6f74206f60008201527f776e6572206e6f7220617070726f766564000000000000000000000000000000602082015250565b7f455243373231456e756d657261626c653a20676c6f62616c20696e646578206f60008201527f7574206f6620626f756e64730000000000000000000000000000000000000000602082015250565b7f50757263686173652065786365656473206d617820616c6c6f77656400000000600082015250565b7f416c6c20746f6b656e732068617665206265656e206d696e7465640000000000600082015250565b61525e816147e4565b811461526957600080fd5b50565b615275816147f6565b811461528057600080fd5b50565b61528c81614802565b811461529757600080fd5b50565b6152a38161480c565b81146152ae57600080fd5b50565b6152ba81614858565b81146152c557600080fd5b5056fea264697066735822122013659cbaffba26cf869f8fb91884ea1786104305421ff82662aa1c78a26bf87264736f6c63430008040033",
  "linkReferences": {},
  "deployedLinkReferences": {}
}